:1000000002052202000632323232320205BC32329E
:1000100032323202000732323232320200083232D9
:0200200032327A
:030023000206F7DB
:03002B00020009C7
:0300330002000ABE
:03003B0002000EB2
:0300430002000FA9
:03004B00020010A0
:0C00530002001190F5C0E054F84FF022BC
:0300630002001286
:03006B000200167A
:0300730002001771
:03007B0002001868
:0C00830002001990F5C1EFF0EEA3F0228E
:0300930002001A4E
:03009B0002001E42
:0300A30002001F39
:0300AB0002002030
:1000B300020021E5082408F582E43400F583E00515
:1000C3000822900005300703900008E475F0011240
:1000D30004DC02041B2000E97F2ED2008018EF54B9
:1000E3000F2490D43440D4FF30040BEF24BFB41A50
:1000F3000050032461FFE50960021509050CE50CB6
:100103007002050B30070E900005E475F001120430
:10011300DCEF0204CA0209607403D2078003E4C25D
:1001230007F5089000051204F3E4F509F50BF50C47
:10013300E50960077F201200F980F5750AFFC20107
:10014300C200C202C203C205C206C2081200C5FF32
:10015300700D3007057F0012010AAF0CAE0B22B4FD
:10016300255FC2D5C2041200C5FF24D0B40A0050D3
:100173001A75F00A780930D50508B6FF0106C6A43A
:1001830026F620D5047002D20380D924CFB41A00F6
:10019300EF5004C2E5D20402030BD20180C6D200A1
:1001A30080C0D20280BCD2D580BAD20580B47F2071
:1001B3001200F92002077401B5090040F11200B6DC
:1001C300FF1200F9020133D208D20680951200B65D
:1001D300FB1200B6FA1200B6F94A4B700679DC7AC4
:1001E300037BFF20022EE509602A7E008E82758341
:1001F3000012049D60060EEE650A70F0C2D5EBC0D6
:10020300E0EAC0E0E9C0E0EE120352D0E0F9D0E04A
:10021300FAD0E0FB12041BFF60AAEBC0E0EAC0E0E7
:10022300E9C0E01200F9D0E02401F9D0E03400FA8B
:10023300D0E0FBE50A0460DCD50AD980877BFF7A2E
:1002430003794ED202809C791080027908C206C2DB
:10025300088008D2D5790A8004790AC2D5E50A0450
:100263007002F50AE4FAFDFEFF1200B6FC7B0820DB
:1002730001131200B6FD7B1030000A1200B6FE1205
:1002830000B6FF7B20EC3382D592D55013C3E43004
:1002930000069FFFE49EFEE42001039DFDE49CFC19
:1002A300E4CBF8C201EC700CCFCECDCCE824F8F847
:1002B30070F38017C3EF33FFEE33FEED33FDEC3302
:1002C300FCEB33FB994002FB0FD8E9EB300105F857
:1002D300D0E0C448B201C0E00AEC4D4E4F78207B19
:1002E3000070C2EAB50A0040BCC0E0120354D0F06B
:1002F300D0E0200104C4C0E0C4B201C0F01200E2A7
:10030300D0F0D5F0EB0201331204FC01D053024AC2
:100313005801A14C019D42024E4F025644025649D8
:1003230001B643025C550240460240450240470382
:10033300FC5001A52D01A92E01CC2B01AD2301CA2F
:100343002003E52A016548000001C43F3F3F0079CF
:100353000AA2D5200314300509B910020404B90810
:100363000104A2D52006025001042002689202B5BE
:1003730009005034C0E07F203003197F30A202729D
:10038300067205500F1203ABC202C206C205C208B1
:100393007F30800F300503E9C0E01200F930050318
:1003A300D0E0F9D0E0B509CC3005177F30B9100C97
:1003B3001200F97F583004077F788003B9080312CD
:1003C30000F93002057F2D0200F97F202008F87F15
:1003D3002B2006F322920280CF286E756C6C2900C5
:1003E300D2011200B63001F8C201780930D50108F4
:1003F300F60201652D504349581200B62403B40593
:10040300004001E49003F7931200EA743A1200EA01
:10041300D20375090402024ABB010689828A83E07A
:10042300225002E722BBFE02E32289828A83E493FD
:1004330022C5F0F8A3E028F0C5F0F8E58215827034
:10044300021583E038F022A3F8E0C5F025F0F0E5CB
:1004530082158270021583E0C838F0E822ECF0A31D
:10046300EDF0A3EEF0A3EFF022A8828583F0D08312
:10047300D082120483120483120483120483E4736C
:10048300E493A3C583C5F0C583C8C582C8F0A3C5DB
:1004930083C5F0C583C8C582C822BB010CE5822988
:1004A300F582E5833AF583E0225006E92582F8E6F2
:1004B30022BBFE06E92582F8E222E58229F582E5E0
:1004C300833AF583E49322BB010689828A83F0226F
:1004D3005002F722BBFE01F322F8E0FBA3A3E0F9ED
:1004E30025F0F0E582158270021583E0FA38F022D8
:1004F300EBF0A3EAF0A3E9F022D083D082F8E493EF
:100503007012740193700DA3A393F8740193F58291
:100513008883E4737402936860EFA3A3A380DF78F6
:10052300FFE4F6D8FD9000007F007E04E4F0A3DF33
:10053300FCDEFA758121020577020631E493A3F804
:10054300E493A34003F68001F208DFF48029E493E7
:10055300A3F85407240CC8C333C4540F4420C883DE
:100563004004F456800146F6DFE4800B01020408E0
:100573001020408090097AE47E019360BCA3FF546D
:100583003F30E509541FFEE493A360010ECF54C02E
:1005930025E060A840B8E493A3FAE493A3F8E493B6
:1005A300A3C8C582C8CAC583CAF0A3C8C582C8CABE
:1005B300C583CADFE9DEE780BEC0E0C0F0C083C008
:1005C30082C0D075D000C000C004C005C006C007FB
:1005D300758CF8758A30C28D90002DE475F0011288
:1005E3000434FEC3E5F094E8EE9403402C90002D10
:1005F300E4F0A3F0900034E0FCA3E0FDA3E0FEA34D
:10060300E02401FFE43EFEE43DFDE43CFC900034C5
:100613001204609000337401F0D007D006D005D0E7
:1006230004D000D0D0D082D083D0F0D0E0321208F2
:100633002F1207EB7BFF7A0979F8120121E490006E
:1006430000F0A312046C0000000053A87F90003355
:10065300E0601CA3E0FCA3E0FDA3E0FEA3E0FF90A9
:100663000001120460E4900033F090000004F043B2
:10067300A880900000E060C57BFF7A0A7905A3E0BB
:10068300FCA3E0FDA3E0FEA3E0FF900008120460DA
:1006930012012180A8EF702BAE98EE543FFEEDC4FB
:1006A300333354C04EF5985391FAEB24FE600C1487
:1006B300600E2402700D439101800843910480036E
:1006C300439105EF6401702BAEEAEE543FFEAF0594
:1006D300EFC4333354C04EF5EA5391F5EB24FE6077
:1006E3000B14600C2402700B4391022243910822E5
:1006F30043910A22C0E0C0F0C083C082C0D075D04D
:1007030000C000C001C002C003C004C005C006C0D1
:1007130007E4FF1208A4EF6005E4FF120907E4FFF2
:1007230012087FEF6011E4FF120992AD07E4FF1294
:1007330009CCE4FF1208E8D007D006D005D004D0D6
:1007430003D002D001D000D0D0D082D083D0F0D05B
:10075300E032EF14601924FE602B1460312404701E
:100763003CAE89EE54F8FEED25E025E04B8012AE59
:1007730089EE548FFEEBC454F0FFEDC4333354C001
:100783004F4EF58922AED2EE54FC4BF5D222AED2B7
:10079300EE54CFFEAF03EFC454F04EF5D222EF1464
:1007A300601924FE602314602D2404703AAE8EEE8B
:1007B30054F7FEED33333354F8800AAE8EEE54EF24
:1007C300FEEDC454F04EF58E22AED2EE54FBFEED98
:1007D30025E025E0800EAED2EE54BFFEAF05EFC498
:1007E300333354C04EF5D222E4FFFE9000051204C9
:1007F3006C000025807B037D01E4FF120698E4FF73
:100803001209B9E4FF120056E4FF1209A67EFF7F26
:10081300641200861209F090F0247408F0A304F027
:10082300E4FF1209DF53B8EF43A880227B01E4FD04
:10083300FF120755E4FDFF1207A17B307DF8E4FFAB
:10084300120858E4FF120943E4FF12092653B8FDC6
:10085300E4FF0208C9EF14601024FE601114601352
:10086300240470178D8C8B8A228D8D8B8B228DDBCC
:100873008BDA22AF058FE3AF038FE222AE07EEFDE3
:100883007C00700AE5987F0030E0027F0122ED646E
:10089300014C700AE5EA7F0030E0027F01227F000D
:1008A30022AE07EEFD7C00700AE5987F0030E1027E
:1008B3007F0122ED64014C700AE5EA7F0030E1021A
:1008C3007F01227F0022EF14600F24FE600F14606B
:1008D300102404700F438810224388402243D20817
:1008E3002243D28022EFFD7C007009AE98EE54FEC5
:1008F3004402F598ED64014C7009AEEAEE54FE44EF
:1009030002F5EA22EFFD7C007009AE98EE54FD4437
:1009130001F598ED64014C7009AEEAEE54FD440113
:10092300F5EA22EF14600E24FE600D14600E240419
:10093300700DD2A922D2AB2243AA012243AA0222DA
:10094300EF14600E24FE600D14600E2404700DC2BB
:100953008D22C28F2275B2FE2275B2FD22A2ACE4B3
:1009630033FEC2AC5398FD8F99E59830E1FB539861
:10097300FDEE24FF92AC2244002F016E36004200AC
:100983002D0000440034000000004100330000EF5C
:10099300FD7C007003AF9922ED64014C7F0070026F
:1009A300AFEB22EFFD7C007003438780ED64014CC5
:1009B300700343874022EFFD7C007003439810EDE2
:1009C30064014C700343EA1022EFFB7A0070028D3E
:1009D30099EB64014A7004AF058FEB22EFFD7C00B5
:1009E3007002D2ACED64014C7002D2AE2290F5C01D
:1009F300E04480F022554152542072656164790DC0
:100A03000A00557074696D653A20256C7520730D65
:020A13000A00D7
:00000001FF
