:100000000204C490F5C0E04480F022020696EFFDA1
:100010007C007003AF9922ED64014C7F007002AF49
:02002000EB22D1
:100023000206D1E5082407F582E43400F583E005F0
:100033000822900004300703900007E475F00112D2
:10004300047E02038B2000E97F2ED2008018EF5438
:100053000F2490D43440D4FF30040BEF24BFB41AE0
:100063000050032461FFE50960021509050CE50C46
:100073007002050B30070E900004E475F0011204C2
:100083007EEF0204540209127403D2078003E4C210
:1000930007F508900004120495E4F509F50BF50C37
:1000A300E50960077F2012006980F5750AFFC20128
:1000B300C200C202C203C205C206C208120035FF53
:1000C300700D3007057F0012007AAF0CAE0B22B41F
:1000D300255FC2D5C204120035FF24D0B40A0050F4
:1000E3001A75F00A780930D50508B6FF0106C6A4CB
:1000F30026F620D5047002D20380D924CFB41A0087
:10010300EF5004C2E5D20402027BD20180C6D200C2
:1001130080C0D20280BCD2D580BAD20580B47F2001
:100123001200692002077401B5090040F11200268C
:10013300FF1200690200A3D208D20680951200269E
:10014300FB120026FA120026F94A4B7006794C7A04
:10015300037BFF20022EE509602A7E008E827583D1
:100163000012042760060EEE650A70F0C2D5EBC0DC
:10017300E0EAC0E0E9C0E0EE1202C2D0E0F9D0E06C
:10018300FAD0E0FB12038BFF60AAEBC0E0EAC0E009
:10019300E9C0E0120069D0E02401F9D0E03400FAAC
:1001A300D0E0FBE50A0460DCD50AD980877BFF7ABF
:1001B3000279BED202809C791080027908C206C2FD
:1001C300088008D2D5790A8004790AC2D5E50A04E1
:1001D3007002F50AE4FAFDFEFF120026FC7B0820FC
:1001E3000113120026FD7B1030000A120026FE12B6
:1001F3000026FF7B20EC3382D592D55013C3E43025
:1002030000069FFFE49EFEE42001039DFDE49CFCA9
:10021300E4CBF8C201EC700CCFCECDCCE824F8F8D7
:1002230070F38017C3EF33FFEE33FEED33FDEC3392
:10023300FCEB33FB994002FB0FD8E9EB300105F8E7
:10024300D0E0C448B201C0E00AEC4D4E4F78207BA9
:100253000070C2EAB50A0040BCC0E01202C4D0F08C
:10026300D0E0200104C4C0E0C4B201C0F0120052C7
:10027300D0F0D5F0EB0200A312049E01405301BA63
:100283005801114C010D4201BE4F01C64401C6493C
:1002930001264301CC5501B04601B04501B04703E7
:1002A3006C5001152D01192E013C2B011D23013A20
:1002B3002003552A00D548000001343F3F3F007911
:1002C3000AA2D5200314300509B910020404B908A1
:1002D3000104A2D52006025001042002689202B54F
:1002E30009005034C0E07F203003197F30A202722E
:1002F300067205500F12031BC202C206C205C208D2
:100303007F30800F300503E9C0E012006930050338
:10031300D0E0F9D0E0B509CC3005177F30B9100C27
:100323001200697F583004077F788003B9080312ED
:1003330000693002057F2D0200697F202008F87FC5
:100343002B2006F322920280CF286E756C6C290055
:10035300D2011200263001F8C201780930D5010814
:10036300F60200D52D504349581200262403B40544
:10037300004001E49003679312005A743A12005A42
:10038300D2037509040201BABB010689828A83E09C
:10039300225002E722BBFE02E32289828A83E4938E
:1003A30022C5F0F8A3E028F0C5F0F8E582158270C5
:1003B300021583E038F022A3F8E0C5F025F0F0E55C
:1003C30082158270021583E0C838F0E822BB01076A
:1003D30089828A830203EA5005E9F8020466BBFEB8
:1003E30005E9F802047222ECF0A3EDF0A3EEF0A30A
:1003F300EFF022A8828583F0D083D08212040D12FD
:10040300040D12040D12040DE473E493A3C583C514
:10041300F0C583C8C582C8F0A3C583C5F0C583C82A
:10042300C582C822BB010CE58229F582E5833AF532
:1004330083E0225006E92582F8E622BBFE06E92581
:1004430082F8E222E58229F582E5833AF583E49393
:1004530022BB010689828A83F0225002F722BBFE67
:1004630001F322ECF608EDF608EEF608EFF622ECBF
:10047300F208EDF208EEF208EFF222F8E0FBA3A394
:10048300E0F925F0F0E582158270021583E0FA3871
:10049300F022EBF0A3EAF0A3E9F022D083D082F8B4
:1004A300E4937012740193700DA3A393F8740193F2
:1004B300F5828883E4737402936860EFA3A3A38037
:1004C300DF78FFE4F6D8FD9000007F007E04E4F0BF
:1004D300A3DFFCDEFA758121020519020839E493D2
:1004E300A3F8E493A34003F68001F208DFF4802924
:1004F300E493A3F85407240CC8C333C4540F442013
:10050300C8834004F456800146F6DFE4800B010201
:1005130004081020408090099DE47E019360BCA3F1
:10052300FF543F30E509541FFEE493A360010ECF4F
:1005330054C025E060A840B8E493A3FAE493A3F879
:10054300E493A3C8C582C8CAC583CAF0A3C8C58239
:10055300C8CAC583CADFE9DEE780BEEF702BAE9859
:10056300EE543FFEEDC4333354C04EF5985391FA25
:10057300EB24FE600C14600E2402700D4391018085
:10058300084391048003439105EF6401702BAEEAA5
:10059300EE543FFEAF05EFC4333354C04EF5EA5378
:1005A30091F5EB24FE600B14600C2402700B439155
:1005B30002224391082243910A22EF14601924FE78
:1005C300602B1460312404703CAE89EE54F8FEEDC8
:1005D30025E025E04B8012AE89EE548FFEEBC45428
:1005E300F0FFEDC4333354C04F4EF58922AED2EE43
:1005F30054FC4BF5D222AED2EE54CFFEAF03EFC480
:1006030054F04EF5D222EF14601924FE60231460D7
:100613002D2404703AAE8EEE54F7FEED333333548B
:10062300F8800AAE8EEE54EFFEEDC454F04EF58E14
:1006330022AED2EE54FBFEED25E025E0800EAED2D5
:10064300EE54BFFEAF05EFC4333354C04EF5D22290
:10065300758CF0758A60C28D90002CE475F00112E0
:1006630003A4FEC3E5F094E8EE94034025E4900070
:100673002CF0A3F090002F1209762401FFE43EFE34
:10068300E43DFDE43CFC90002F1203EA90002E743D
:1006930001F022C0E0C0F0C083C082C0D075D0009A
:1006A300C000C001C002C003C004C005C006C0072B
:1006B300120653D007D006D005D004D003D002D001
:1006C30001D000D0D0D082D083D0F0D0E032C0E0CF
:1006D300C0F0C083C082C0D075D000C000C001C0CC
:1006E30002C003C004C005C006C0071207C8D00774
:1006F300D006D005D004D003D002D001D000D0D092
:10070300D082D083D0F0D0E032E4FFFE7B037D01C2
:1007130012055EE4FF12093FE4FF12098BE4FF12A6
:10072300092C7EFE7FC812099412000390F02474F2
:1007330008F0A304F0E4FF12096553B8EF43A8805F
:10074300229000001203F6000000007B017A00797A
:10075300001208BAEF601D7BFF7A0979A5900000AB
:10076300E0FCA3E0FDA3E0FEA3E0FF90000712037B
:10077300EA120091227B01E4FDFF1205BDE4FDFFB7
:100783001206097B607DF0E4FF1207A1E4FF120863
:10079300F5E4FF1208D853B8FDE4FF02085DEF1437
:1007A300601024FE6011146013240470178D8C8B69
:1007B3008A228D8D8B8B228DDB8BDA22AF058FE323
:1007C300AF038FE222E4FF120814EF6005E4FF1287
:1007D300089BE4FF1207EFEF6011E4FF12000EAD78
:1007E30007E4FF120952E4FF12087C22AE07EEFD74
:1007F3007C00700AE5987F0030E0027F0122ED64FF
:10080300014C700AE5EA7F0030E0027F01227F009D
:1008130022AE07EEFD7C00700AE5987F0030E1020E
:100823007F0122ED64014C700AE5EA7F0030E102AA
:100833007F01227F002230AF0AC2AF00120981D2AA
:10084300AF800312098112077812070C7BFF7A0924
:1008530079B512009112074480FBEF14600F24FE58
:10086300600F1460102404700F43881022438840E3
:100873002243D2082243D28022EFFD7C007009AECE
:1008830098EE54FE4402F598ED64014C7009AEEA0B
:10089300EE54FE4402F5EA22EFFD7C007009AE98A7
:1008A300EE54FD4401F598ED64014C7009AEEAEE97
:1008B30054FD4401F5EA22E4FF53A87F90002EE0A3
:1008C300600FA3120976FF1203D0E490002EF07F8D
:1008D3000143A88022EF14600E24FE600D14600E05
:1008E3002404700DD2A922D2AB2243AA012243AA27
:1008F3000222EF14600E24FE600D14600E240470B7
:100903000DC28D22C28F2275B2FE2275B2FD22A2C4
:10091300ACE433FEC2AC5398FD8F99E59830E1FB0C
:100923005398FDEE24FF92AC22EFFD7C007003434D
:100933008780ED64014C700343874022EFFD7C0008
:100943007003439810ED64014C700343EA1022EFE7
:10095300FB7A0070028D99EB64014A7004AF058F36
:10096300EB22EFFD7C007002D2ACED64014C70020F
:10097300D2AE22E0FCA3E0FDA3E0FEA3E022759645
:10098300AA759655E4F58F2290F5C0E054F84FF020
:100993002290F5C1EFF0EEA3F02244003302DC6CA9
:1009A3000000557074696D653A20256C7520730DD0
:0F09B3000A00554152542072656164790D0A00A3
:00000001FF
